S01600004652444D2D4B4C32355A2D554152542E6865785F
S113000000300020C10900006109000061090000FE
S113001000000000000000000000000000000000DC
S11300200000000000000000000000006109000062
S1130030000000000000000061090000B51A000083
S11300406109000061090000610900006109000004
S113005061090000610900006109000061090000F4
S113006061090000610900006109000061090000E4
S1130070190F000061090000610900006109000016
S113008061090000610900006109000061090000C4
S113009061090000610900006109000061090000B4
S11300A061090000610900006109000061090000A4
S11300B06109000061090000610900006109000094
S1130800002934D00123002210B488422CD30124BF
S11308102407A14204D2814202D209011B01F8E754
S1130820E400A14204D2814202D249005B00F8E70D
S1130830884201D3401A1A434C08A04202D3001B39
S11308405C0822438C08A04202D3001B9C0822436C
S1130850CC08A04202D3001BDC082243002803D0AA
S11308601B0901D00909E3E7101C10BC70470028DC
S113087001D00020C04307B4024802A140180290EE
S113088003BDC046D90000000029F0D003B5FFF72E
S1130890B9FF0EBC4243891A1847C046002941D00B
S11308A010B4041C4C40A44601230022002900D5A6
S11308B04942002800D5404288422CD30124240711
S11308C0A14204D2814202D209011B01F8E7E400EB
S11308D0A14204D2814202D249005B00F8E7884277
S11308E001D3401A1A434C08A04202D3001B5C08EF
S11308F022438C08A04202D3001B9C082243CC084C
S1130900A04202D3001BDC082243002803D01B09A9
S113091001D00909E3E7101C6446002C00D54042CD
S113092010BC7047002806D003DB0020C0434008F9
S113093001E08020000607B4024802A1401802909A
S113094003BDC046190000000029EBD003B5FFF732
S1130950A7FF0EBC4243891A1847C0467047C046D9
S113096080B500AF00BEBD4680BDC04680B500AFB7
S1130970064A0749074BD150074A88235B010021E7
S1130980D15000F075FBBD4680BDC04600E000E0DC
S113099000000000080D00000070044080B500AFA6
S11309A0054A064BD31A054A101C00211A1C01F0F3
S11309B0ABF8BD4680BDC04654F0FF1F00F0FF1FDA
S11309C001F034F9FFF7D2FFFFF7E8FF01F062F915
S11309D001F0E0F801F038F9044B0020191C01F093
S11309E039F8031C181C01F073F8C04600F0FF1F0F
S11309F080B582B000AF7860FEE7C04680B582B0B3
S1130A0000AF786007E07B681B787A6801327A600F
S1130A10181C00F007F87B681B78002BF3D1BD4647
S1130A2002B080BD80B582B000AF021CFB1D1A70FD
S1130A30044AFB1D1B78101C191C00F06FF9BD46FD
S1130A4002B080BD00A0064080B500AF1D4A1D491C
S1130A501D4BCB58A021490119431B4BD1501B4BB3
S1130A60802252009A641A4B194A52688021C902A2
S1130A700A435A60164B164A52698021C9020A4336
S1130A805A61124B80225200DA64114B104A5268A8
S1130A90802109030A435A600D4B0D4A5269802193
S1130AA009030A435A610B4B802252005A600A4BD5
S1130AB002225A60084B084A526902210A435A61C9
S1130AC0BD4680BD007004403810000000A0044002
S1130AD040F00F4000C00440C0F00F4080B58EB01D
S1130AE000AFF860B9607A6000237B6200233B6347
S1130AF00023FB6200233B620023BB62814A8149DD
S1130B00814BCB588021C90019437F4BD1507F4B77
S1130B107E4AD278D2B20C218A43D2B2DA70BA6851
S1130B207B4B9A4202DCBB681F2B0EDC0023BB60AC
S1130B30744A784BD3583B623A6A774B13403B6212
S1130B40704A744B396AD150FEE77B68FB61BB681D
S1130B50FA2292005343BB613B1C373304221A70C0
S1130B603B1C37331B78FA695343B869191CFFF7E8
S1130B7047FE031C7B613B1C37331B787A69534364
S1130B80B869191CFFF73CFE031C7B627A6AFB6997
S1130B909A4204D97A6AFB69D31A3B6303E0FA697F
S1130BA07B6AD31A3B633B1C37331B78FB623B1CC9
S1130BB0373305221A7033E03B1C37331B78FA694C
S1130BC05343B869191CFFF71BFE031C7B613B1CD4
S1130BD037331B787A695343B869191CFFF710FE41
S1130BE0031C7B627A6AFB699A4204D97A6AFB69BC
S1130BF0D31ABB6203E0FA697B6AD31ABB62BA6A8E
S1130C003B6B9A4205D8BB6A3B633B1C37331B786A
S1130C10FB623B1C37333A1C3732127801321A70AC
S1130C203B1C37331B78202BC6D9FB69181C642165
S1130C30FFF7E6FD031C1A1C131C5B009A183B6BA0
S1130C409A425BD9FB6A032B0AD9FB6A082B07D8A3
S1130C502E4B2E4AD27AD2B202210A43D2B2DA728F
S1130C602A4B9B7ADBB23B623B6A1F2293433B6273
S1130C70FB6ADBB2013BDBB21A1C1F2313403A6A46
S1130C8013433B62214B3A6AD2B29A723A6A1F23E7
S1130C90134001333B62FB693A6A5343B869191C38
S1130CA0FFF7AEFD031C7B61184B1B78DBB21F22E0
S1130CB093433B62154B7969F82252010A40120AA8
S1130CC0D1B21F220A40D1B23A6AD2B20A43D2B296
S1130CD01A700E4B7A69D2B25A700C4B0B4AD27806
S1130CE0D2B220210A43D2B2DA70084B074AD27832
S1130CF0D2B20C210A43D2B2DA7000E0FEE7BD465C
S1130D000EB080BD007004403410000000A0064006
S1130D1050C3000004100000FFFFFFF380B582B051
S1130D2000AF78600A1CFB1C1A70C0467B681B79F4
S1130D30DBB2DBB25BB2002BF8DA7B68FA1C127808
S1130D40DA71BD4602B080BD80B582B000AF021C2E
S1130D50FB1D1A70FB1D1B78262B07D0FB1D1B786F
S1130D60662B03D0FB1D1B78442B01D1012300E02B
S1130D700023DBB2181CBD4602B080BD80B584B030
S1130D8000AF021CFB1D1A703B1C0F33FA1D1178B7
S1130D9007220A401A703B1C0F331B78002B1DD00E
S1130DA03B1C0F331B78012B18D03B1C0F331B78D3
S1130DB0022B13D03B1C0F331B78032B0ED03B1C90
S1130DC00F331B78042B09D03B1C0F331B78052BE6
S1130DD004D03B1C0F331B78062B01D1012300E008
S1130DE00023DBB2181CBD4604B080BD80B582B0C0
S1130DF000AF0A1CFB1D011C1970BB1D1A70BD46F7
S1130E0002B080BD80B582B000AFFB1D01221A7014
S1130E1000F0B2F8FB1D1B78022B1CD002DC012B66
S1130E2005D068E0032B46D0042B58D063E0364B42
S1130E301B78181CFFF788FF031C002B07D0324BCC
S1130E401A78324B1A70FB1D02221A7059E0FB1DEE
S1130E5001221A7055E02D4B1B78262B0FD12A4BFB
S1130E601B78181CFFF78AFF031C002B07D0264BA6
S1130E701A78274B1A70FB1D03221A7041E0234B8A
S1130E801B78662B07D1204B1A78214B1A70FB1D57
S1130E9003221A7035E01D4B1B78442B07D11A4BE3
S1130EA01A781B4B1A70FB1D03221A7029E0FB1DD4
S1130EB001221A7025E0144B1A78164B1A70134B42
S1130EC01A78134B1B785340DAB2124B1B789A42B0
S1130ED016D1FB1D04221A70FFF794FF10E00B4B90
S1130EE01A780B4B1B78101C191CFFF77FFFFB1D96
S1130EF001221A7005E0FB1D01221A70C04600E0B1
S1130F00C046BD4602B080BD27F0FF1F26F0FF1F7C
S1130F1025F0FF1F24F0FF1F80B582B000AFFB1D3A
S1130F2000221A70124B1B79DBB21A1C20231340C7
S1130F301BD00F4AFB1DD2791A700E4BFA1D127882
S1130F401A70FFF75FFF0A4B1B79DBB2DBB25BB2AF
S1130F50002B06DB064B1B79DBB21A1C4023134023
S1130F6003D0034BFA1D1278DA71BD4602B080BD7E
S1130F7000A0064027F0FF1F80B500AF024B0222FD
S1130F80DA60BD4680BDC046C0F00F4080B500AFFA
S1130F90264A2649264BCB588021C9001943244BA5
S1130FA0D150244B802252009A64234B224A526827
S1130FB08021C9020A435A601F4B1F4A526980218B
S1130FC0C9020A435A61194A1849194BCB5880215E
S1130FD0C9001943164BD150164B80225200DA64D3
S1130FE0154B154A5268802109030A435A60124B73
S1130FF0114A5269802109030A435A610B4A0B4979
S11310000B4BCB58802149011943094BD1500B4B51
S1131010802252005A600A4B02225A60084B084A46
S1131020526902210A435A61BD4680BD00700440E2
S11310303810000000A0044040F00F4000C00440FD
S1131040C0F00F4080B500AF084B00225A70074B28
S113105000229A60054B00229A80044B05229A7064
S1131060024B02221A70BD4680BDC04628F0FF1F05
S113107080B582B002AF3E4A3D493E4BCB58F82181
S1131080890119433B4BD150394A3B4B80214902DA
S1131090D1503A4B1822009201220192181C0021CF
S11310A00122042300F024FA021C354B1A60344B4D
S11310B01B68181CFA239900FFF7F0FB031C1A1C89
S11310C0304B1A602F4B1B681A1C29492A4BCB58EA
S11310D01B0F0133101C191CFFF792FB031C1A1C75
S11310E0294B1A60284B1B681A1C2149224BC958EA
S11310F0E023DB020B401B0C0133101C191CFFF70F
S11311007FFB031C1A1C214B1A60194A1849204BF7
S1131110CB588021490219431D4BD1501D4B8022CD
S113112092005A601B4B802292009A60104A104928
S1131130174BCB588021C9041943154BD150104B80
S11311401B68181CFA23D900FFF7A8FB031C1A1C00
S1131150114B1A60104B1A68104996239B01081C06
S1131160111C1A1CFFF7BAFCFFF76EFCBD4680BDCC
S113117000700440381000004410000000127A008F
S113118034F0FF1F48F0FF1F38F0FF1F3CF0FF1F33
S1131190041000000090044040F0FF1F00A006402F
S11311A080B582B000AF78607B68202B01DDC0463B
S11311B020E0124A7968124B0B4004D5013B2021F0
S11311C049420B4301330121081C9840031C191C9C
S11311D0C0235B00D150094A7968094B0B4004D500
S11311E0013B202149420B4301330121081C984053
S11311F0031C1360BD4602B080BDC04600E100E0A0
S11312001F00008080B584B000AF786039603B1C5B
S11312100F3300221A703B1C0E3300221A703B1C41
S11312200D3300221A707B68202B03DD3B1C0F3327
S113123001221A703B68032B03DD3B1C0F33012290
S11312401A703B1C0F331B78012B2CD07B68002BAE
S113125000DA03339B101A1C3B1C0E331A707A6895
S1131260124B134004D5013B042252421343013371
S11312701A1C3B1C0D331A703B1C0E331B789B004D
S11312800B481B18BB60BB681A683B689901FF23B5
S113129019403B1C0D331B78DB00081C9840031CD1
S11312A01A43BB681A60BD4604B080BD03000080C9
S11312B000E400E080B500AF024B01221A70BD4685
S11312C080BDC04604F0FF1F80B582B000AF134B51
S11312D000221A70FB1D00221A7015E0FB1D1B78FA
S11312E00F4A1B01D31804331B68002B07D0FB1DC6
S11312F01B780B4A1B01D31804331B689847FB1D4A
S1131300FA1D127801321A70FB1D1B78082BE5D9DF
S1131310044B01221A80BD4602B080BD04F0FF1FB9
S1131320F81C000050F0FF1F80B586B000AF3B1CD6
S1131330173300221A7016E03B1C17331A783B1C33
S1131340173319783C48082309014118CB181B8826
S113135099B23B1D5200D1523B1C17333A1C173231
S1131360127801321A703B1C17331B78082BE3D90F
S113137000E0C046314B1B78DBB2002BF9D02F4B79
S113138000221A703B1C173300221A704EE03B1CDB
S113139017331A78284B1201D358002B3FD03B1C2B
S11313A017331A783B1C173319783B1D4900CB5A65
S11313B09BB2013B9BB299B23B1D5200D1523B1CE4
S11313C017331A783B1D5200D35A1BB2002B26DC6C
S11313D03B1C17331A783B1C17331978164808231B
S11313E009014118CB185B8899B23B1D5200D152B8
S11313F03B1C17331A781049082312018A18D31892
S11314009B880F4A128892B213409BB2002B06D0DD
S11314103B1C17331A78084B1201D35898473B1CCE
S113142017333A1C1732127801321A703B1C1733E7
S11314301B78082BABD99CE7F81C000004F0FF1FB5
S113144050F0FF1F80B500AFBD4680BD80B500AF32
S1131450FFF79CFDFFF7F6FDBD4680BD80B500AFEC
S1131460BD4680BD80B500AFBD4680BD80B500AF30
S1131470BD4680BD80B500AFBD4680BD80B500AF20
S1131480BD4680BD80B500AFBD4680BD80B500AF10
S1131490BD4680BD80B500AFBD4680BD80B500AF00
S11314A0BD4680BD80B500AFBD4680BD80B500AFF0
S11314B0BD4680BD80B500AFBD4680BD80B500AFE0
S11314C0BD4680BD80B500AFBD4680BD80B582B04D
S11314D002AF064B1822009201220192181C00212F
S11314E00122042300F004F8BD4680BD00127A00F6
S11314F080B586B000AF7860081C111C1A1CFB1C58
S11315001870BB1C19707B1C1A70C24B9B79DBB220
S11315101A1C0C2313409B080DD1BE4B9B79DBB2E4
S11315201A1C1023134006D0BA4B9B79DBB21A1C49
S11315302023134001D0012373E27A68B64B9A4208
S113154001DD21236DE2BB1C1B78002B09D07A68D6
S1131550B24B9A4203DD7A68B14B9A4201DD2223F1
S11315605FE2FB1C1B78002B02D0FB1C01221A70CB
S11315707B1C1B785BB2002B04DD7B1C1B785BB2ED
S1131580192B01DD41234CE23B1C20331B785BB259
S1131590172B05DD3B1C20331B785BB2322B01DD9E
S11315A042233EE27B1C1B785BB27868191CFFF770
S11315B075F9031C3B613A699A4B9A4203DD3A6917
S11315C0994B9A4201DD43232BE27B1C1B785BB2CF
S11315D07868191CFFF762F9031C3A1C2032127850
S11315E052B25343FB60FA68904B9A4203DDFA68A7
S11315F08F4B9A4201DD452313E2864A3B1C163386
S113160052781A703B1C16333A1C163212783C215D
S11316108A431A707A68874B9A4214DCFB1C1B7845
S1131620DB00DAB2BB1C1B789B00DBB21343DAB2DB
S11316303B1C16331B781343DAB23B1C16331021C0
S11316400A431A7013E0FB1C1B78DB00DAB2BB1CE4
S11316501B789B00DBB21343DAB23B1C16331B78B6
S11316601343DAB23B1C163320210A431A70694B28
S11316703A1C163212785A707A686F4B9A4204DC1C
S11316803B1C173300221A7027E07A686B4B9A428E
S113169004DC3B1C173301221A701EE07A68684B85
S11316A09A4204DC3B1C173302221A7015E07A6854
S11316B0644B9A4204DC3B1C173303221A700CE07F
S11316C07A68614B9A4204DC3B1C173304221A707B
S11316D003E03B1C173305221A704E4A3B1C163399
S11316E012781A703B1C16333A1C163211780322F6
S11316F00A401A703B1C17331B78DB00DAB238231C
S11317001340DAB23B1C16331B781343DAB23B1C8A
S11317101633802149420A431A703E4B3A1C163252
S113172012781A70BB1C1B78002B24D03B1C14337A
S113173000221A800DE0374B9B79DBB21A1C02237E
S113174013400ED13B1C14333A1C1432128801325C
S11317501A803B1C143300215A5E3C4B9A42EADD4A
S113176000E0C0462B4B9B79DBB21A1C02231340CA
S113177001D1232355E13B1C143300221A800DE0D0
S1131780244B9B79DBB21A1C102313400ED03B1C54
S113179014333A1C1432128801321A803B1C14335D
S11317A000215A5E2A4B9A42EADD00E0C046194BFA
S11317B09B79DBB21A1C1023134001D0112330E1B2
S11317C03B1C143300221A800FE0124B9B79DBB2CE
S11317D01A1C0C2313409B08022B0ED03B1C143301
S11317E03A1C1432128801321A803B1C1433002133
S11317F05A5E174B9A42E8DD00E0C046054B9B79E0
S1131800DBB21A1C0C2313409B08022B22D01A2390
S113181007E1C0460040064080F0FA02BFC62D0032
S11318200048E8017F841E0000093D00FF6BDC02D4
S113183000E1F50500127A00D0121300A02526005D
S1131840404B4C0080969800002D31011F4E000043
S1131850CF070000754B754A5279D2B220210A4352
S1131860D2B25A71714A3B1C163312791A703B1C5E
S113187016333A1C163212781F218A431A707B1CC5
S11318801B78013BDAB21F231340D9B23B1C163339
S11318903A1C163212780A431A70644B3A1C1632F8
S11318A012781A71614A3B1C163352791A703B1C28
S11318B016333A1C163212781F218A431A703B1CC5
S11318C020331B78183BDAB21F231340DAB23B1CD7
S11318D016331B781343DAB23B1C163340210A43F8
S11318E01A70524B3A1C163212785A713B1C14333C
S11318F000221A800DE04D4B9B79DBB21A1C202389
S113190013400ED13B1C14333A1C1432128801329A
S11319101A803B1C143300215A5E454B9A42EADD7F
S113192000E0C046414B9B79DBB21A1C20231340D4
S113193001D1162375E03B1C143300221A800DE0FC
S11319403A4B9B79DBB21A1C402313400ED13B1C4B
S113195014333A1C1432128801321A803B1C14339B
S113196000215A5E334B9A42EADD00E0C0462F4B19
S11319709B79DBB21A1C4023134001D1442350E06D
S11319802A4B1B79DAB21F231340DAB23B1C0B3308
S113199001321A70254B5B79DAB21F231340DAB295
S11319A03B1C0A3318321A70204B204A1278D1B2E9
S11319B03F220A40D2B21A703B1C143300221A8010
S11319C00FE01A4B9B79DBB21A1C0C2313409B08C3
S11319D0032B0ED03B1C14333A1C143212880132F0
S11319E01A803B1C143300215A5E114B9A42E8DDE5
S11319F000E0C0460D4B9B79DBB21A1C0C2313404C
S1131A009B08032B01D01B230BE03B1C0B331B78DF
S1131A107868191CFEF742FF031C3A1C0A3212783C
S1131A205343181CBD4606B080BDC0460040064066
S1131A30CF0700009F0F000080B500AF034B044A9E
S1131A405A60024B07221A60BD4680BD10E000E0D8
S1131A5080BB000080B582B000AF00237B600D4BDB
S1131A60181CFEF7CBFF62B60C20FFF799FB0C2085
S1131A700221FFF7C7FB00F00FF8FFF727FDFFF780
S1131A80DBFFFFF721FCFFF74FFC0023181CBD46CA
S1131A9002B080BDC81C000080B500AF044A0449F0
S1131AA088235B01C95888235B01D150BD4680BDA2
S1131AB00070044080B500AF044B1B685A1C034BF4
S1131AC01A60FFF7F7FBBD4680BDC04608F0FF1F54
S1131AD038B5051C00F09CF800F080F8084C236829
S1131AE0002B02D0984700202060064C2168002972
S1131AF002D0884700222260281CFEF779FF38BDF7
S1131B000CF0FF1F10F0FF1F10B5041C00F002F8CA
S1131B10201C10BD30B5C9B2031C1F2A31D9444260
S1131B200323234005D0D21AC51801700130A842FE
S1131B30FBD1002905D00D060C042C430B022143D4
S1131B4019435409031C002C0ED0251C013D1960B7
S1131B5059609960D960196159619961D9612033DB
S1131B60002DF3D16301C318D006400F07D0041C25
S1131B701D1C013C02C5002CFBD180001B18032452
S1131B8022409D18002A03D019700133AB42FBD1C7
S1131B9030BD000010B50B4C0B4B9C4202D001CC65
S1131BA08047F9E7094C0A48844202D008CC984798
S1131BB0F9E7084C08498C4202D004CC9047F9E775
S1131BC010BDC046881D0000881D0000881D00004F
S1131BD0881D0000881D0000881D000010B5084CF9
S1131BE0084B9C4202D004CC9047F9E7064C0748C6
S1131BF0844203D0043C21688847F8E710BDC046FE
S1131C00881D0000881D0000881D0000881D00003C
S1131C10054B10B51C68002C04D0A0686168884787
S1131C202468F8E710BDC04614F0FF1F054B181CCC
S1131C30002805D0854681B00020C043009001B043
S1131C40F746704700300020F746704700B58842D9
S1131C501FD0002A1DD00323194207D1184205D1F1
S1131C609A4203D908C9043A08C0F2E70123194289
S1131C7009D1184207D19A4205D90B88023A038048
S1131C8002310230E5E70B78013A0370013101308B
S1131C90DFE700BD38B50B4D002D11D000242B1902
S1131CA01968002906D02B1958689A68FFF7CEFFE7
S1131CB00C34F4E75A68002AF5D198680028F2D168
S1131CC038BDC046881D00000D0A48656C6C6F2045
S1131CD0576F726C64212055415254204C6162202C
S1131CE07573696E6720496E7465727275707420BD
S1131CF06D6F64650D0A00000000000045140000CB
S1131D0000000000FFFF0000000000004D14000070
S1131D1000000000FFFF0000951400005D140000A7
S1131D2005000500FFFF00009D140000651400007D
S1131D300A000A00FFFF0000A51400006D14000053
S1131D4014001400FFFF0000AD140000751400001F
S1131D5032003200FFFF0000B51400007D140000C3
S1131D6064006400FFFF0000BD140000851400003F
S1131D70F401F401FFFF0000C51400008D140000FD
S10B1D80E803E803FFFF000083
S1131D88881D000000F0FF1F000000000000000094
S10B1D9800000000000000003F
S90309C132
