S01600004652444D2D4B4C32355A2D554152542E6865785F
S113000000300020C10900006109000061090000FE
S113001000000000000000000000000000000000DC
S11300200000000000000000000000006109000062
S11300300000000000000000610900006D210000C4
S11300406109000061090000610900006109000004
S113005061090000610900006109000061090000F4
S113006061090000610900006109000061090000E4
S1130070610F0000610900006109000061090000CE
S113008061090000610900006109000061090000C4
S113009061090000610900006109000061090000B4
S11300A061090000610900006109000061090000A4
S11300B06109000061090000610900006109000094
S1130800002934D00123002210B488422CD30124BF
S11308102407A14204D2814202D209011B01F8E754
S1130820E400A14204D2814202D249005B00F8E70D
S1130830884201D3401A1A434C08A04202D3001B39
S11308405C0822438C08A04202D3001B9C0822436C
S1130850CC08A04202D3001BDC082243002803D0AA
S11308601B0901D00909E3E7101C10BC70470028DC
S113087001D00020C04307B4024802A140180290EE
S113088003BDC046D90000000029F0D003B5FFF72E
S1130890B9FF0EBC4243891A1847C046002941D00B
S11308A010B4041C4C40A44601230022002900D5A6
S11308B04942002800D5404288422CD30124240711
S11308C0A14204D2814202D209011B01F8E7E400EB
S11308D0A14204D2814202D249005B00F8E7884277
S11308E001D3401A1A434C08A04202D3001B5C08EF
S11308F022438C08A04202D3001B9C082243CC084C
S1130900A04202D3001BDC082243002803D01B09A9
S113091001D00909E3E7101C6446002C00D54042CD
S113092010BC7047002806D003DB0020C0434008F9
S113093001E08020000607B4024802A1401802909A
S113094003BDC046190000000029EBD003B5FFF732
S1130950A7FF0EBC4243891A1847C0467047C046D9
S113096080B500AF00BEBD4680BDC04680B500AFB7
S1130970064A0749074BD150074A88235B010021E7
S1130980D15000F0CDFEBD4680BDC04600E000E081
S113099000000000080D00000070044080B500AFA6
S11309A0054A064BD31A054A101C00211A1C01F0F3
S11309B007FCBD4680BDC046F4F0FF1F9CF0FF1F3E
S11309C001F090FCFFF7D2FFFFF7E8FF01F0BEFC57
S11309D001F03CFC01F094FC044B0020191C01F0D4
S11309E095FB031C181C01F0CFFBC0469CF0FF1FB5
S11309F080B582B000AF7860FEE7C04680B582B0B3
S1130A0000AF786007E07B681B787A6801327A600F
S1130A10181C00F007F87B681B78002BF3D1BD4647
S1130A2002B080BD80B582B000AF021CFB1D1A70FD
S1130A30044AFB1D1B78101C191C00F06FF9BD46FD
S1130A4002B080BD00A0064080B500AF1D4A1D491C
S1130A501D4BCB58A021490119431B4BD1501B4BB3
S1130A60802252009A641A4B194A52688021C902A2
S1130A700A435A60164B164A52698021C9020A4336
S1130A805A61124B80225200DA64114B104A5268A8
S1130A90802109030A435A600D4B0D4A5269802193
S1130AA009030A435A610B4B802252005A600A4BD5
S1130AB002225A60084B084A526902210A435A61C9
S1130AC0BD4680BD007004403810000000A0044002
S1130AD040F00F4000C00440C0F00F4080B58EB01D
S1130AE000AFF860B9607A6000237B6200233B6347
S1130AF00023FB6200233B620023BB62814A8149DD
S1130B00814BCB588021C90019437F4BD1507F4B77
S1130B107E4AD278D2B20C218A43D2B2DA70BA6851
S1130B207B4B9A4202DCBB681F2B0EDC0023BB60AC
S1130B30744A784BD3583B623A6A774B13403B6212
S1130B40704A744B396AD150FEE77B68FB61BB681D
S1130B50FA2292005343BB613B1C373304221A70C0
S1130B603B1C37331B78FA695343B869191CFFF7E8
S1130B7047FE031C7B613B1C37331B787A69534364
S1130B80B869191CFFF73CFE031C7B627A6AFB6997
S1130B909A4204D97A6AFB69D31A3B6303E0FA697F
S1130BA07B6AD31A3B633B1C37331B78FB623B1CC9
S1130BB0373305221A7033E03B1C37331B78FA694C
S1130BC05343B869191CFFF71BFE031C7B613B1CD4
S1130BD037331B787A695343B869191CFFF710FE41
S1130BE0031C7B627A6AFB699A4204D97A6AFB69BC
S1130BF0D31ABB6203E0FA697B6AD31ABB62BA6A8E
S1130C003B6B9A4205D8BB6A3B633B1C37331B786A
S1130C10FB623B1C37333A1C3732127801321A70AC
S1130C203B1C37331B78202BC6D9FB69181C642165
S1130C30FFF7E6FD031C1A1C131C5B009A183B6BA0
S1130C409A425BD9FB6A032B0AD9FB6A082B07D8A3
S1130C502E4B2E4AD27AD2B202210A43D2B2DA728F
S1130C602A4B9B7ADBB23B623B6A1F2293433B6273
S1130C70FB6ADBB2013BDBB21A1C1F2313403A6A46
S1130C8013433B62214B3A6AD2B29A723A6A1F23E7
S1130C90134001333B62FB693A6A5343B869191C38
S1130CA0FFF7AEFD031C7B61184B1B78DBB21F22E0
S1130CB093433B62154B7969F82252010A40120AA8
S1130CC0D1B21F220A40D1B23A6AD2B20A43D2B296
S1130CD01A700E4B7A69D2B25A700C4B0B4AD27806
S1130CE0D2B220210A43D2B2DA70084B074AD27832
S1130CF0D2B20C210A43D2B2DA7000E0FEE7BD465C
S1130D000EB080BD007004403410000000A0064006
S1130D1050C3000004100000FFFFFFF380B582B051
S1130D2000AF78600A1CFB1C1A70C0467B681B79F4
S1130D30DBB2DBB25BB2002BF8DA7B68FA1C127808
S1130D40DA71BD4602B080BD80B582B000AF021C2E
S1130D50FB1D1A70FB1D1B78262B07D0FB1D1B786F
S1130D60662B03D0FB1D1B78442B01D1012300E02B
S1130D700023DBB2181CBD4602B080BD80B584B030
S1130D8000AF021CFB1D1A703B1C0F33FA1D1178B7
S1130D9007220A401A703B1C0F331B78002B1DD00E
S1130DA03B1C0F331B78012B18D03B1C0F331B78D3
S1130DB0022B13D03B1C0F331B78032B0ED03B1C90
S1130DC00F331B78042B09D03B1C0F331B78052BE6
S1130DD004D03B1C0F331B78062B01D1012300E008
S1130DE00023DBB2181CBD4604B080BD80B582B0C0
S1130DF000AF0A1CFB1D011C1970BB1D1A70FB1DE2
S1130E001B78442B19D0662B19D0262B1AD1BB1D65
S1130E101B78062B15D89A000C4BD3181B689F46D9
S1130E2000F0A4F908E000F0ADF905E000F01AFBC9
S1130E3002E000F035FBC04603E0C04602E0C046D5
S1130E4000E0C046BD4602B080BDC046E8230000B5
S1130E5080B500AF00F024F93C4B1B78022B1CD06A
S1130E6002DC012B05D068E0032B46D0042B58D0BC
S1130E7063E0374B1B78181CFFF766FF031C002B3D
S1130E8007D0334B1A78334B1A70304B02221A7046
S1130E9059E02E4B01221A7055E02E4B1B78262B5D
S1130EA00FD12B4B1B78181CFFF768FF031C002B7A
S1130EB007D0274B1A78284B1A70244B03221A7038
S1130EC041E0244B1B78662B07D1214B1A78224B27
S1130ED01A701E4B03221A7035E01E4B1B78442BEC
S1130EE007D11B4B1A781C4B1A70184B03221A702B
S1130EF029E0164B01221A7025E0154B1A78174B7E
S1130F001A70144B1A78144B1B785340DAB2134BF3
S1130F101B789A4216D10D4B04221A70FFF798FFE2
S1130F2010E00C4B1A780C4B1B78101C191CFFF7A3
S1130F305DFF064B01221A7005E0044B01221A7072
S1130F40C04600E0C046BD4680BDC04600F0FF1F5D
S1130F50C7F0FF1FC6F0FF1FC5F0FF1FC4F0FF1F3F
S1130F6080B582B000AFFB1D00221A70094B1B79BB
S1130F70DBB21A1C2023134009D0064AFB1DD27988
S1130F801A70054BFA1D12781A70FFF761FFBD46FF
S1130F9002B080BD00A00640C7F0FF1F80B500AFBF
S1130FA0024B8022D2029A60BD4680BD40F00F40C1
S1130FB080B500AF024B8022D2025A60BD4680BD8C
S1130FC040F00F4080B500AF024B802212039A60BC
S1130FD0BD4680BD40F00F4080B500AF024B80227B
S1130FE012035A60BD4680BD40F00F4080B500AF8B
S1130FF0024B02229A60BD4680BDC046C0F00F403D
S113100080B500AF024B02225A60BD4680BDC04687
S1131010C0F00F4080B582B000AF0A1CFB1D011C5C
S11310201970BB1D1A7000F031F8FB1D1B78072BDB
S113103026D89A00144BD3181B689F46FFF7AEFFBF
S11310401EE0FFF7BFFF1BE0FFF7D0FF18E0FFF73C
S1131050B9FFFFF7CBFF13E0FFF7A0FFFFF7C6FFD1
S11310600EE0FFF7AFFFFFF799FF09E0FFF796FFE8
S1131070FFF7A8FFFFF7BAFF02E000F007F8C04649
S1131080BD4602B080BDC0460424000080B500AF58
S1131090FFF7A2FFFFF78CFFFFF7B2FFBD4680BD4D
S11310A080B500AF024B0222DA60BD4680BDC04667
S11310B0C0F00F4080B500AF264A2649264BCB58D6
S11310C08021C9001943244BD150244B8022520063
S11310D09A64234B224A52688021C9020A435A6007
S11310E01F4B1F4A52698021C9020A435A61194A97
S11310F01849194BCB588021C9001943164BD150BC
S1131100164B80225200DA64154B154A526880212E
S113111009030A435A60124B114A52698021090398
S11311200A435A610B4A0B490B4BCB5880214901A6
S11311301943094BD1500B4B802252005A600A4B81
S113114002225A60084B084A526902210A435A6132
S1131150BD4680BD007004403810000000A004406B
S113116040F00F4000C00440C0F00F4080B500AF15
S1131170034B01221A7000F011F8BD4680BDC04631
S1131180A0F0FF1F80B500AF034B01221A7000F0DE
S113119005F8BD4680BDC046A1F0FF1F80B500AF75
S11311A0864B1B78012B5BD0022B00D1ADE0002BCA
S11311B000D0F8E0824B1B78012B08D100F018F91D
S11311C07E4B01221A707E4B00221A70EFE07D4B99
S11311D01B78012B08D100F015F9784B02221A7004
S11311E0784B00221A70E2E0774B1B78012B08D170
S11311F000F018F9714B00221A70734B00221A7018
S1131200D5E0724B1B78012B08D100F01BF96B4B16
S113121000221A706D4B00221A70C8E06C4B1B78C8
S1131220012B08D100F01EF9644B00221A70684BA0
S113123000221A70BBE0674B1B78012B00D0B6E08C
S1131240654B9B88042B02D800F02AF901E000F0DA
S11312504DF9604B00221A70584B00221A70A6E018
S1131260574B1B78012B08D100F0B8F8534B0022E0
S11312701A70534B00221A709BE0524B1B78012BBF
S113128008D100F0BFF84D4B02221A704D4B0022DA
S11312901A708EE04C4B1B78012B08D100F0C2F879
S11312A0464B01221A70484B00221A7081E0474BCA
S11312B01B78012B08D100F0C5F8404B01221A70AD
S11312C0424B00221A7074E0414B1B78012B08D169
S11312D000F0C8F8394B01221A703D4B00221A70F5
S11312E067E03C4B1B78012B63D13B4B9B88042B61
S11312F002D800F0D5F801E000F0F8F8354B0022F0
S11313001A702E4B01221A7053E02D4B1B78012BBF
S113131008D100F063F8294B00221A70284B0022F0
S11313201A7048E0274B1B78012B08D100F000F914
S1131330224B02221A70234B00221A703BE0224BEC
S11313401B78012B08D100F06DF81C4B02221A7097
S11313501D4B00221A702EE01C4B1B78012B08D168
S113136000F070F8154B02221A70184B00221A7004
S113137021E0174B1B78012B08D100F073F80F4BB9
S113138002221A70124B00221A7014E0114B1B78BF
S1131390012B10D100F084F8084B02221A700D4B77
S11313A000221A7007E000F0ADF8C04604E0C04621
S11313B002E0C04600E0C046BD4680BD01F0FF1F0C
S11313C0A0F0FF1FA1F0FF1FA2F0FF1FA3F0FF1F5B
S11313D0A4F0FF1FA5F0FF1FC8F0FF1F80B500AFEA
S11313E0024B00221A70BD4680BDC046C8F0FF1FE4
S11313F080B500AF024B01221A70BD4680BDC046C5
S1131400C8F0FF1F80B500AF054B02221A70044BD1
S113141000229A60024B00229A80BD4680BDC046DD
S1131420C8F0FF1F80B500AF054B9B78092B05D88A
S1131430034B9B780133DAB2014B9A70BD4680BDF1
S1131440C8F0FF1F80B500AF054B9B78022B05D970
S1131450034B9B78013BDAB2014B9A70BD4680BDC9
S1131460C8F0FF1F80B500AF0C4B5B780133DAB2D4
S11314700A4B5A70094B5B785BB2181C0521FFF7C5
S113148063FA0B1CDAB2054B5A70044B00229A60C3
S1131490024B00229A80BD4680BDC046C8F0FF1FA3
S11314A080B500AF104B5B78002B03D10E4B0422A8
S11314B05A7010E00C4B5B78013BDAB20A4B5A705D
S11314C0094B5B785BB2181C0521FFF73DFA0B1C36
S11314D0DAB2054B5A70044B00229A60024B002288
S11314E09A80BD4680BDC046C8F0FF1F80B500AFDE
S11314F0034B00229A60024B00229A80BD4680BDB5
S1131500C8F0FF1F80B500AF084B00225A70074B8C
S113151000229A60054B00229A80044B05229A709F
S1131520024B02221A70BD4680BDC046C8F0FF1FA0
S113153080B500AF024B00225A70BD4680BDC04644
S1131540C8F0FF1F90B583B000AF324B1B78002B5F
S113155034D1304B9B681A1C14322E4B9A602D4B9D
S11315609B68181C9623D900FFF74AF9031C9AB20A
S1131570284B9A80274B9B881D2B01D9FFF772FFBC
S1131580244B5B785CB2234B9B88181C1E21FFF70D
S11315907BF90B1C9BB2181CFA1D1F49231C1B0151
S11315A01B1B5B001B185B5C13701A4B9B78FA1DAA
S11315B01278101C191CFFF72DFD27E0154B1B7822
S11315C0022B02D1FFF762FD20E0124B1B78012BA6
S11315D01CD1104B5B785CB20E4B9B88181C1E21EF
S11315E0FFF752F90B1C9BB2181CFA1D0A49231C65
S11315F01B011B1B5B001B185B5C1370054B9B786A
S1131600FA1D1278101C191CFFF704FDBD4603B027
S113161090BDC046C8F0FF1F04F0FF1F80B582B024
S113162000AF364B181CFFF7E9F9354B181CFFF7D0
S1131630E5F9344B1B78012B08D0022B0BD0002B7F
S11316400ED1314B181CFFF7D9F909E02F4B181CA8
S1131650FFF7D4F904E02E4B181CFFF7CFF9C0466E
S11316602C4B181CFFF7CAF9264B5B785BB2181C8D
S11316700A21FFF713F9031CDBB2DBB23033DAB211
S11316803B1D1A701F4B5B785BB2181C0A21FFF7D5
S11316905BF90B1CDBB2DBB23033DAB23B1D5A70A0
S11316A03B1D00229A703B1D181CFFF7A7F91A4B2B
S11316B0181CFFF7A3F9134B9B78181C0A21FFF79A
S11316C09FF8031CDBB23033DAB23B1D1A700D4BAA
S11316D09B78181C0A21FFF7D7F80B1CDBB23033B8
S11316E0DAB23B1D5A703B1D181CFFF787F90B4BF0
S11316F0181CFFF783F9BD4602B080BD80230000AB
S113170084230000C8F0FF1F8C23000094230000F2
S11317109C230000A4230000AC230000B423000099
S113172080B582B002AF3E4A3D493E4BCB58F821CA
S1131730890119433B4BD150394A3B4B8021490223
S1131740D1503A4B1822009201220192181C002118
S11317500122042300F028FA021C354B1A60344B92
S11317601B68181CFA239900FFF798F8031C1A1C2D
S1131770304B1A602F4B1B681A1C29492A4BCB5833
S11317801B0F0133101C191CFFF73AF8031C1A1C19
S1131790294B1A60284B1B681A1C2149224BC95833
S11317A0E023DB020B401B0C0133101C191CFFF758
S11317B027F8031C1A1C214B1A60194A1849204B9C
S11317C0CB588021490219431D4BD1501D4B802217
S11317D092005A601B4B802292009A60104A104972
S11317E0174BCB588021C9041943154BD150104BCA
S11317F01B68181CFA23D900FFF750F8031C1A1CA5
S1131800114B1A60104B1A68104996239B01081C4F
S1131810111C1A1CFFF762F9FFF716F9BD4680BDCB
S113182000700440381000004410000000127A00D8
S1131830D4F0FF1FE8F0FF1FD8F0FF1FDCF0FF1FFC
S11318400410000000900440E0F0FF1F00A00640D8
S113185080B582B000AF78607B68202B01DDC04684
S113186020E0124A7968124B0B4004D5013B202139
S113187049420B4301330121081C9840031C191CE5
S1131880C0235B00D150094A7968094B0B4004D549
S1131890013B202149420B4301330121081C98409C
S11318A0031C1360BD4602B080BDC04600E100E0E9
S11318B01F00008080B584B000AF786039603B1CA5
S11318C00F3300221A703B1C0E3300221A703B1C8B
S11318D00D3300221A707B68202B03DD3B1C0F3371
S11318E001221A703B68032B03DD3B1C0F330122DA
S11318F01A703B1C0F331B78012B2CD07B68002BF8
S113190000DA03339B101A1C3B1C0E331A707A68DE
S1131910124B134004D5013B0422524213430133BA
S11319201A1C3B1C0D331A703B1C0E331B789B0096
S11319300B481B18BB60BB681A683B689901FF23FE
S113194019403B1C0D331B78DB00081C9840031C1A
S11319501A43BB681A60BD4604B080BD0300008012
S113196000E400E080B500AF024B01221A70BD46CE
S113197080BDC046A6F0FF1F80B582B000AF134BF8
S113198000221A70FB1D00221A7015E0FB1D1B7843
S11319900F4A1B01D31804331B68002B07D0FB1D0F
S11319A01B780B4A1B01D31804331B689847FB1D93
S11319B0FA1D127801321A70FB1D1B78082BE5D929
S11319C0044B01221A80BD4602B080BDA6F0FF1F61
S11319D024240000F0F0FF1F80B586B000AF3B1C4C
S11319E0173300221A7016E03B1C17331A783B1C7D
S11319F0173319783C48082309014118CB181B8870
S1131A0099B23B1D5200D1523B1C17333A1C17327A
S1131A10127801321A703B1C17331B78082BE3D958
S1131A2000E0C046314B1B78DBB2002BF9D02F4BC2
S1131A3000221A703B1C173300221A704EE03B1C24
S1131A4017331A78284B1201D358002B3FD03B1C74
S1131A5017331A783B1C173319783B1D4900CB5AAE
S1131A609BB2013B9BB299B23B1D5200D1523B1C2D
S1131A7017331A783B1D5200D35A1BB2002B26DCB5
S1131A803B1C17331A783B1C173319781648082364
S1131A9009014118CB185B8899B23B1D5200D15201
S1131AA03B1C17331A781049082312018A18D318DB
S1131AB09B880F4A128892B213409BB2002B06D027
S1131AC03B1C17331A78084B1201D35898473B1C18
S1131AD017333A1C1732127801321A703B1C173331
S1131AE01B78082BABD99CE724240000A6F0FF1F29
S1131AF0F0F0FF1F80B500AFBD4680BD80B500AFDC
S1131B00FFF7D8FAFFF7FEFCBD4680BD80B500AFF5
S1131B10BD4680BD80B500AFBD4680BD80B500AF79
S1131B20BD4680BD80B500AFBD4680BD80B500AF69
S1131B30BD4680BD80B500AFBD4680BD80B500AF59
S1131B40BD4680BD80B500AFBD4680BD80B500AF49
S1131B50BD4680BD80B500AFFFF7F4FCBD4680BD37
S1131B6080B500AFFFF75AFDBD4680BD80B500AF1C
S1131B70BD4680BD80B500AFBD4680BD80B500AF19
S1131B80BD4680BD80B582B002AF064B18220092DC
S1131B9001220192181C00210122042300F004F800
S1131BA0BD4680BD00127A0080B586B000AF786073
S1131BB0081C111C1A1CFB1C1870BB1C19707B1C04
S1131BC01A70C24B9B79DBB21A1C0C2313409B087E
S1131BD00DD1BE4B9B79DBB21A1C1023134006D0E7
S1131BE0BA4B9B79DBB21A1C2023134001D001238A
S1131BF073E27A68B64B9A4201DD21236DE2BB1C85
S1131C001B78002B09D07A68B24B9A4203DD7A68BC
S1131C10B14B9A4201DD22235FE2FB1C1B78002BAF
S1131C2002D0FB1C01221A707B1C1B785BB2002BB8
S1131C3004DD7B1C1B785BB2192B01DD41234CE2D4
S1131C403B1C20331B785BB2172B05DD3B1C203378
S1131C501B785BB2322B01DD42233EE27B1C1B78F6
S1131C605BB27868191CFEF719FE031C3B613A69E4
S1131C709A4B9A4203DD3A69994B9A4201DD432318
S1131C802BE27B1C1B785BB27868191CFEF706FEFE
S1131C90031C3A1C2032127852B25343FB60FA6898
S1131CA0904B9A4203DDFA688F4B9A4201DD45233B
S1131CB013E2864A3B1C163352781A703B1C1633C7
S1131CC03A1C163212783C218A431A707A68874B80
S1131CD09A4214DCFB1C1B78DB00DAB2BB1C1B78B9
S1131CE09B00DBB21343DAB23B1C16331B7813435D
S1131CF0DAB23B1C163310210A431A7013E0FB1CA2
S1131D001B78DB00DAB2BB1C1B789B00DBB21343ED
S1131D10DAB23B1C16331B781343DAB23B1C16337E
S1131D2020210A431A70694B3A1C163212785A70F1
S1131D307A686F4B9A4204DC3B1C173300221A70FA
S1131D4027E07A686B4B9A4204DC3B1C1733012270
S1131D501A701EE07A68684B9A4204DC3B1C173305
S1131D6002221A7015E07A68644B9A4204DC3B1C28
S1131D70173303221A700CE07A68614B9A4204DC30
S1131D803B1C173304221A7003E03B1C1733052253
S1131D901A704E4A3B1C163312781A703B1C1633C9
S1131DA03A1C1632117803220A401A703B1C17336E
S1131DB01B78DB00DAB238231340DAB23B1C16334B
S1131DC01B781343DAB23B1C1633802149420A4381
S1131DD01A703E4B3A1C163212781A70BB1C1B78D0
S1131DE0002B24D03B1C143300221A800DE0374B07
S1131DF09B79DBB21A1C022313400ED13B1C143313
S1131E003A1C1432128801321A803B1C143300210C
S1131E105A5E3C4B9A42EADD00E0C0462B4B9B796C
S1131E20DBB21A1C0223134001D1232355E13B1CCE
S1131E30143300221A800DE0244B9B79DBB21A1C68
S1131E40102313400ED03B1C14333A1C1432128856
S1131E5001321A803B1C143300215A5E2A4B9A42E9
S1131E60EADD00E0C046194B9B79DBB21A1C102353
S1131E70134001D0112330E13B1C143300221A809B
S1131E800FE0124B9B79DBB21A1C0C2313409B0806
S1131E90022B0ED03B1C14333A1C1432128801322C
S1131EA01A803B1C143300215A5E174B9A42E8DD1A
S1131EB000E0C046054B9B79DBB21A1C0C2313408F
S1131EC09B08022B22D01A2307E1C046004006409B
S1131ED080F0FA02BFC62D000048E8017F841E008E
S1131EE000093D00FF6BDC0200E1F50500127A00F9
S1131EF0D0121300A0252600404B4C008096980079
S1131F00002D31011F4E0000CF070000754B754AAC
S1131F105279D2B220210A43D2B25A71714A3B1C7F
S1131F20163312791A703B1C16333A1C1632127887
S1131F301F218A431A707B1C1B78013BDAB21F23D2
S1131F401340D9B23B1C16333A1C163212780A439A
S1131F501A70644B3A1C163212781A71614A3B1C8F
S1131F60163352791A703B1C16333A1C1632127807
S1131F701F218A431A703B1C20331B78183BDAB2AA
S1131F801F231340DAB23B1C16331B781343DAB217
S1131F903B1C163340210A431A70524B3A1C16322A
S1131FA012785A713B1C143300221A800DE04D4BF9
S1131FB09B79DBB21A1C202313400ED13B1C143333
S1131FC03A1C1432128801321A803B1C143300214B
S1131FD05A5E454B9A42EADD00E0C046414B9B798C
S1131FE0DBB21A1C2023134001D1162375E03B1CDD
S1131FF0143300221A800DE03A4B9B79DBB21A1C91
S1132000402313400ED13B1C14333A1C1432128863
S113201001321A803B1C143300215A5E334B9A421E
S1132020EADD00E0C0462F4B9B79DBB21A1C40234B
S1132030134001D1442350E02A4B1B79DAB21F2309
S11320401340DAB23B1C0B3301321A70254B5B7917
S1132050DAB21F231340DAB23B1C0A3318321A7067
S1132060204B204A1278D1B23F220A40D2B21A70D1
S11320703B1C143300221A800FE01A4B9B79DBB20D
S11320801A1C0C2313409B08032B0ED03B1C143347
S11320903A1C1432128801321A803B1C143300217A
S11320A05A5E114B9A42E8DD00E0C0460D4B9B7925
S11320B0DBB21A1C0C2313409B08032B01D01B23F7
S11320C00BE03B1C0B331B787868191CFEF7E6FB0E
S11320D0031C3A1C0A3212785343181CBD4606B03E
S11320E080BDC04600400640CF0700009F0F00009F
S11320F080B500AF034B044A5A60024B07221A60B2
S1132100BD4680BD10E000E080BB000080B582B019
S113211000AF00237B600D4B181CFEF76FFC62B60A
S11321200C20FFF795FB0C200221FFF7C3FB00F006
S11321300FF8FFF727FDFFF7DBFFFFF71DFCFFF7A5
S11321404BFC0023181CBD4602B080BDB823000020
S113215080B500AF044A044988235B01C958882329
S11321605B01D150BD4680BD0070044080B500AF16
S1132170044B1B685A1C034B1A60FFF7F3FBBD4664
S113218080BDC046A8F0FF1F38B5051C00F09CF8C0
S113219000F080F8084C2368002B02D098470020F8
S11321A02060064C2168002902D088470022226062
S11321B0281CFEF71DFC38BDACF0FF1FB0F0FF1F5C
S11321C010B5041C00F002F8201C10BD30B5C9B2D3
S11321D0031C1F2A31D944420323234005D0D21AB9
S11321E0C51801700130A842FBD1002905D00D06A5
S11321F00C042C430B02214319435409031C002CE7
S11322000ED0251C013D196059609960D96019618F
S113221059619961D9612033002DF3D16301C31849
S1132220D006400F07D0041C1D1C013C02C5002C25
S1132230FBD180001B18032422409D18002A03D0E0
S113224019700133AB42FBD130BD000010B50B4C0B
S11322500B4B9C4202D001CC8047F9E7094C0A4859
S1132260844202D008CC9847F9E7084C08498C42CC
S113227002D004CC9047F9E710BDC046B424000056
S1132280B4240000B4240000B4240000B4240000EA
S1132290B424000010B5084C084B9C4202D004CC76
S11322A09047F9E7064C0748844203D0043C216870
S11322B08847F8E710BDC046B4240000B4240000E9
S11322C0B4240000B4240000054B10B51C68002C95
S11322D004D0A068616888472468F8E710BDC04648
S11322E0B4F0FF1F054B181C002805D0854681B0AB
S11322F00020C043009001B0F74670470030002032
S1132300F746704700B588421FD0002A1DD003232A
S1132310194207D1184205D19A4203D908C9043A8F
S113232008C0F2E70123194209D1184207D19A42A1
S113233005D90B88023A038002310230E5E70B78B5
S1132340013A037001310130DFE700BD38B50B4DB0
S1132350002D11D000242B191968002906D02B193F
S113236058689A68FFF7CEFF0C34F4E75A68002ADD
S1132370F5D198680028F2D138BDC0465025000038
S11323802300000045737461646F3A00506C6179F6
S113239000000000506175736500000053746F7095
S11323A0000000002C547261636B3A002C566F6C71
S11323B03A0000000A0000000D0A48656C6C6F20AA
S11323C0576F726C64212055415254204C61622035
S11323D07573696E6720496E7465727275707420C6
S11323E06D6F64650D0A0000200E0000200E0000D1
S11323F0260E0000420E0000420E00002C0E0000CB
S1132400320E00003C100000421000004810000092
S11324104E10000058100000621000006C10000004
S11324207A10000000000000F51A0000000000000F
S1132430FFFF000000000000FD1A00000000000083
S1132440FFFF0000451B00000D1B000005000500F8
S1132450FFFF00004D1B0000151B00000A000A00CE
S1132460FFFF0000551B00001D1B0000140014009A
S1132470FFFF0000611B0000251B0000320032003A
S1132480FFFF00006D1B00002D1B000064006400B2
S1132490FFFF0000751B0000351B0000F401F40170
S11324A0FFFF00007D1B00003D1B0000E803E80364
S10724B0FFFF000026
S11324B401020000000501000501000501000501F9
S11324C400050100050100050100050100050100E6
S11324D405060203040602030406020304060203B7
S11324E404060203040602030406020304060304A6
S11324F405030004050102030004050102030004AA
S11325040501020300040501020300040501010698
S11325140003050206000305020600030502060083
S1132524030502060003050206000305060503026B
S11325340104000605030201040006050302010464
S10F25440006050302010400040100006D
S1132550B424000000F0FF1F9C00000000000000F5
S10B256000000000000000006F
S90309C132
